:020000040800F2
:10000000000003200DD300084D040008510400082F
:100010005504000861D3000861D300080000000007
:10002000000000000000000000000000590400086B
:100030005D04000800000000610400086504000879
:1000400061D3000861D3000861D3000861D30008C0
:1000500061D3000861D3000861D3000861D30008B0
:1000600061D3000861D300087504000861D300085B
:1000700061D3000861D3000861D3000861D3000890
:1000800061D3000861D3000861D3000861D3000880
:1000900061D3000861D3000861D3000861D3000870
:1000A00061D3000861D3000861D3000861D3000860
:1000B00061D3000861D3000861D3000861D3000850
:1000C00061D3000861D3000861D3000861D3000840
:1000D0006904000861D3000861D3000861D30008F7
:1000E00061D3000861D3000861D3000861D3000820
:1000F00061D3000861D3000861D3000861D3000810
:1001000061D3000861D3000861D3000861D30008FF
:1001100061D3000861D3000861D3000861D30008EF
:1001200061D3000861D3000861D3000861D30008DF
:0C01300061D3000861D3000861D300080F
:1001400010B5054C237833B9044B13B10448AFF311
:1001500000800123237010BDC83E00200000000075
:10016000FC71010808B5034B1BB103490348AFF309
:10017000008008BD00000000CC3E0020FC7101089A
:10018000A3F5803A704700BF174B002B08BF134BF5
:100190009D46FFF7F5FF00218B460F461348144A92
:1001A000121A0DF07DFC0E4B002B00D098470D4B22
:1001B000002B00D098470020002104000D000D48BE
:1001C000002802D00C4811F0BBFD0DF053F92000BF
:1001D00029000DF053F80DF01BF900BF00000800D6
:1001E000000000000000000000000000C83E0020E9
:1001F000F0540020411D0108A932010810B59AB041
:100200003422002109A80DF04BFC0023202260209D
:100210000121CDE90133CDE90333CDE90533CDE942
:100220000732119002234FF40020CDE91331CDE9BC
:1002300016200F9104234FF000510DEB0200CDE981
:10024000183102F027F980B9002303216F2480229E
:1002500001A8CDE90141CDE90333CDE9053207938A
:1002600001F0F6FF20B91AB010BD0BF09DFDEBE7D1
:100270000BF09AFD1AB010BD102802D1014B0122DB
:100280001A607047E43E0020164A002010B49060C7
:10029000D2F888104FF0B04341F47001C2F88810D2
:1002A0001A684FF4E02142F001021A6099601C685C
:1002B0000D4A0E4922401A60D3F894205DF8044B91
:1002C00022F00502C3F89420D3F8982022F001020E
:1002D000C3F89820D96019611A6822F480221A6044
:1002E0009861704700ED00E0FBFEF6FA0010042272
:1002F0004FF0B040214903688268C3F3031302F052
:100300000C02082A10B451F8233014D00C2A14D04F
:100310001B48042A08BF03464FF0B04219489268B0
:100320005DF8044BC2F3031201EB82010A6CB3FBCC
:10033000F2F303607047144BEEE7C468C26804F040
:100340000300C2F30212022802F1010211D00328B5
:1003500008BF0D4BB3FBF2F24FF0B040C368C0686A
:10036000C3F30623400F02FB03F30130B3FBF0F3AA
:10037000D2E7034BB3FBF2F2EEE700BF3C72010899
:100380000024F4000C0000200048E801704700BF82
:1003900030B51B4B026889B000249A42CDE9034472
:1003A000CDE90544079401D009B030BD4FF0B0430A
:1003B00003A91A6E134842F480421A661A6E02F4B8
:1003C00080420292029ADA6C42F00202DA64DB6C3A
:1003D00003F002030193C0220223CDE90323072384
:1003E000012207930592019D01F0ECFB2246214674
:1003F000242003F0C9F9242003F004FA09B030BD29
:10040000003801400004004808B502680D4B9A42CC
:1004100000D008BD4FF0B0430B481A6C42F4804244
:100420001A641A6C22F480421A641A6E22F4804212
:100430001A66C02101F0A4FCBDE80840242003F0A6
:10044000EFB900BF0038014000040048704700BF0A
:10045000FEE700BFFEE700BF704700BF704700BF68
:10046000704700BF01F062BA014804F0F9BB00BF59
:1004700060530020102001F03DBD00BF00487047D0
:1004800000030001F0B5002587B0CDE903554FF01A
:10049000B0430595DA6C0F4E42F00202DA64DB6C71
:1004A0000D4A044632F8107056F8200003F002039B
:1004B000009301A901230222CDE901730492009A5D
:1004C00001F080FB56F824002A46394601F0EAFC88
:1004D00007B0F0BD100000203C73010830B50A4B96
:1004E0000A4D33F8101083B00446002255F820005E
:1004F000019101F0D7FC019955F8240003B0BDE843
:10050000304001F03DBC00BF3C73010810000020EA
:10051000044A054B32F8101053F82000012201F074
:10052000C1BC00BF3C73010810000020044A054B09
:1005300032F8101053F82000002201F0B3BC00BFC5
:100540003C73010810000020034A044B32F81010DD
:1005500053F8200001F0ACBC3C73010810000020EF
:1005600030B58BB00023CDE90533CDE907330A461A
:100570000993044678B94FF0B043D96C41F00401B7
:10058000D964DB6C03F004030293029BA2B1012A3D
:1005900027D00BB030BD012840D00228F6D14FF053
:1005A000B043D96C41F00801D964DB6C03F0080357
:1005B0000493049B002AEAD11E481F4B03EB44031B
:1005C00000EB84041A89E06805920223012505A93D
:1005D000CDE9075301F0F6FA284601F0D7F90BB040
:1005E00030BD154D079205EB440305A91A894FF458
:1005F0000413CDE905230F4B03EB84032C44D86887
:1006000001F0E0FA94F91000019000220F2103F0AC
:10061000BBF8019803F0F6F80BB030BD4FF0B043D3
:10062000D96C41F00801D964DB6C03F00803039333
:10063000039BABE7100000203C73010810B50B4B87
:100640001A1803EB400382B019890191044692F90C
:10065000100003F0E5F80648019900EB8400C0683B
:1006600002B0BDE8104001F08BBB00BF3C73010835
:100670001000002008B5054A054B02EB400203EBD1
:1006800080001189C06801F007FC08BD3C730108B7
:1006900010000020704700BF704700BF224938B5E6
:1006A000224C0A69A368486920EA0300486120498E
:1006B0004CF2FA3C194002EA0C02B9B1E568E2B921
:1006C000194A1169C90709D50121022B116120D0EE
:1006D0000023A3602846FFF7DDFFA3682BB912496A
:1006E0004A6922F040724A61237038BD98074CBFB6
:1006F00025694FF0FF35002AE2D063680A491343A9
:100700000A6128460022C4E90132FFF7C5FFA36849
:10071000D6E76369013B6361002BD9D020690844A7
:10072000206103F005FCD5E7004000583048002068
:1007300001000400064B5A69002A01DB00207047C3
:100740000449054A99609A605869C00F704700BF14
:100750000040005823016745AB89EFCD044B5A692F
:1007600042F000425A615869C043C00F704700BF51
:1007700000400058064B5A69520007D50549064A01
:10078000D960DA605869C0F3807070470120704703
:10079000004000583B2A19087F6E5D4C054B5A6992
:1007A00042F080425A61586980F08040C0F3807006
:1007B000704700BF00400058034A536943F000638C
:1007C00001205361704700BF00400058014B58683A
:1007D000704700BF3048002070B5054601F0B2F800
:1007E000144E044604E001F0ADF8031BAB4218D2EE
:1007F0003369D903F7D43369DA0744BF0122326180
:100800004CF2FA3213400ED10A4E04E001F09AF88D
:10081000001BA84205D2336913F48023F6D1184691
:1008200070BD032070BD0349034A0B610120536072
:1008300070BD00BF00400058304800202DE9F04155
:100840000D46064614461F4601F17840012200235A
:10085000002100F0A9FD48BBDFF8908098F8003037
:10086000012B3ED0C8F8040001234FF47A7088F8B9
:100870000030FFF7B1FF20B1002388F80030BDE859
:10088000F081012E15D1184A536943F001035361D9
:100890002C60BFF36F8F6F604FF47A70FFF79CFF8F
:1008A000114A536923EA06065661E5E70120BDE8CF
:1008B000F0810D494B6943F4802322464B61EFF3ED
:1008C000108072B6291B04F500741368535004326B
:1008D000A242FAD1044A1369DB03FCD480F31088E6
:1008E000DAE70220BDE8F0810040005830480020DF
:1008F0002DE9F843234E96F800C0BCF1010F26D035
:1009000080461C464FF0000901234FF47A700F46D1
:1009100015463370C6F80490FFF75EFF18B186F8ED
:100920000090BDE8F883C6E90287174B5A69B8F111
:10093000010F42F040725A610CD15A6942F0010233
:100940005A613D60BFF36F8F7C60BDE8F883022081
:10095000BDE8F883596941F480212A465961EFF3D3
:10096000108472B605F5007C791B1368535004326D
:100970006245FAD1044A1369DB03FCD484F310887E
:10098000BDE8F8833048002000400058891A23F061
:100990000303101F04311A440B5840F8043F9042DF
:1009A000FAD10020704700BF884228BF0846704730
:1009B000884238BF0846704738B514461D460A4677
:1009C000002306F001FA25F00303211F2344C4F19C
:1009D000006404342044425841F8042F9942FAD16B
:1009E000002038BD2DE9F04F002385B016460A4699
:1009F0008846814606F0E8F9C6F30B050390002D02
:100A00005ED14FF480500CF059FD074600285DD0B0
:100A100056B3C0F1006A431E0AF1040AA0F1040BA8
:100A2000029300F6FF74002308EB0502484606F027
:100A3000CBF9711BB1F5805F28BF4FF4805121F0D5
:100A400003015B4650443944C25843F8042F8B429B
:100A5000FAD1029B13F8012FFF2A0CD19C42F9D145
:100A600005F58055AE42DED838460CF02FFD00204B
:100A700005B0BDE8F08FFFF75DFE039B15481A0B2C
:100A80003344C2EB133301338360134B42604FF4A2
:100A900000421A6100F10C010223036002F0D0FF52
:100AA0000028E1D0FFF792FE0096019043460B48E4
:100AB0004FF4805249460DF061F86FF00400D7E71B
:100AC00007480DF0BDF86FF01500D1E76FF00B008F
:100AD000CEE700BF48480020004000587476010867
:100AE000547601082DE9F04F83B092461FFA83F93E
:100AF0000A4600238B46019006F066F98046FFF710
:100B000019FE414B4FF400421A61B9F1000F45D074
:100B100009F1FF3727F007070AF10803CAF100605F
:100B20003A4C1F4480445546002601E0BD4235D072
:100B3000EB7926611B066361AA79A66143EA024349
:100B4000E3616A79266243EA022262622B79A66235
:100B50001343E362EA781206C4E90C23A97842EA57
:100B60000142C4E90E23697842EA0122C4E9102354
:100B7000287808EB050102430120C4E91223083557
:100B8000FFF75CFE0028D1D0002121480CF0F6FFD1
:100B90006FF00405284603B0BDE8F08F48460CF01E
:100BA0008DFC044650B3002301985A4606F00CF918
:100BB000C4F10063043319184FEA990004EB800074
:100BC000231FCA5843F8042F9842FAD14A46514687
:100BD00020460CF033FF054640B9FFF7ABFD204639
:100BE0000CF074FC284603B0BDE8F08F0948019969
:100BF0005A460CF0C3FF6FF00405F0E706480DF00D
:100C00001FF86FF00B05EDE7004000584848002042
:100C1000BC76010804770108E476010808B508F0FD
:100C20004FFE002008BD00BF10B582B08C46049C6A
:100C30000094044610462246202419460194634637
:100C400009F032F8002002B010BD00BF08B508F06E
:100C500037FE002008BD00BF08B508F031FE0020B7
:100C600008BD00BF274B93F89D30834241D32DE947
:100C7000F04F9346ABB0002A3ED0804668460F4600
:100C800008F05AFA4FF480500CF018FC0646B0B346
:100C900027B3C0F1006909F104090025A0F1040A95
:100CA0007C1BB4F5805F4FF000032A46404628BF06
:100CB0004FF4805406F088F824F003015346314481
:100CC0004844C25843F8042F8B42FAD12246314699
:100CD0006846254408F016FEAF42E1D859466846FA
:100CE00008F03CFA30460CF0F1FB00202BB0BDE8D8
:100CF000F08F6FF0150070476FF01500F6E76FF09A
:100D00000B00F3E764490020002070476FF01800E3
:100D1000704700BF704700BF704700BF704700BFFB
:100D2000704700BF704700BF10B500F00BFE094AC6
:100D3000094B146DA3FB0013506DB4EB931F84BFDC
:100D400000F5830000F637109909001B0844C2E93A
:100D5000141010BD48480020D34D6210F8B5012191
:100D600006464FF480600CF005FB00284CD0284D5F
:100D7000D5F88410B1F5005F04463FD24FF480529D
:100D80000620FFF72FFE0346002B224630464FF485
:100D90009B712ADB06F082F9D5F884104FF40073BA
:100DA00022460620FFF79EFE002103468B42204686
:100DB0004FF4806219DB0CF073FE22464FF4806121
:100DC000D6F8A40306F06AF9D5F884104FF48063CE
:100DD000224601F500710620FFF784FE071E04DBA2
:100DE00020460CF073FB3846F8BDD5F8841001F5A9
:100DF0008051B1F5005FC5F88410BFD305480CF0F1
:100E00001FFF6FF00D07EBE76FF00B07EBE700BF7D
:100E1000D848002048770108044A536F0133002066
:100E2000022B28BF0346906753677047D8480020BD
:100E3000074A936F0133012B936707D9536F01332F
:100E40000021022B28BF0B46C2E91D31002070474C
:100E5000D8480020054AD2E91D10D2F8843003F5A5
:100E6000805303EB013303EBC0207047D8480020C8
:100E70002DE9F84F012107464FF480500CF07AFA23
:100E8000002800F08980474D0646024640F26B215B
:100E900007F59B7006F002F9D5E91D434FF00009F4
:100EA00007F56A7706F26B28CB46CA46D5F8842048
:100EB00002EB043404F5805404EBC32453B3BBF1B8
:100EC000000F33DB42464FF4AF61384606F0E6F8D8
:100ED0004FF40063324621460620FFF703FEB0F1CF
:100EE000000B36DBB9F1000F41D16B6FAA6FC5E97A
:100EF0001F320132012AAA6706D901330022022BD0
:100F000028BF1346C5E91D3230460CF0DFFA5846BB
:100F1000BDE8F88F4FF4805221460620FFF762FDAE
:100F20008346BBF1000F4FF00109CBDAAB6F013301
:100F3000012BAB670BD96C6FC5F878A00134012C7D
:100F40006C6712D90023C5F874A01C46AEE76C6F1D
:100F5000ACE7AB6F0133012BAB67F8D96C6FC5F809
:100F600078A00134012C6C67ECD800239EE7EA6F6F
:100F70006B6F9A42BAD0D5F8841001F5805101EB1D
:100F8000023106204FF48052FFF72CFD011EACDA2F
:100F900005480CF0F3FDA8E704480CF051FE6FF093
:100FA0000B0BB4E7D848002088770108E4760108E5
:100FB00070B50A460546002306200E4605F004FFDC
:100FC000164B5B1B184405F59B7205F5997305F2EA
:100FD0009E3CC45843F8044F6345FAD140F26B215C
:100FE000104606F05BF806F26B220023062005F09F
:100FF000EBFE0B4B5B1B05F56A72184405F5697334
:1010000005F51265C15843F8041FAB42FAD14FF4FD
:10101000AF61104606F042F8002070BDCEFEFF071B
:101020005CFCFF072DE9F04F2DED028B06468DB0DD
:101030004FF412600CF042FA002800F03B81D6F821
:10104000A4330746002B00F0E980A04DD5F884209A
:10105000B2F5005F80F0D280C6F10069DFF898B287
:10106000A6F1040A09F1040906F59A78002306207E
:1010700005F0AAFE53464844C25843F8042F43459E
:10108000FAD132464FF49B71304606F007F8D5F896
:101090008420D6F8A443002302F50072062005F050
:1010A00093FEC4F1006304331844231F04F58064E5
:1010B000C25843F8042FA342FAD1D6F8A4234FF420
:1010C0008061104605F0EAFF2022002104A80CF000
:1010D000E7FC04A9304605F053FF0028C0F2DE808B
:1010E000202206F58B7104A80CF0A8FC002876D10C
:1010F0000446D5F8841076480CF040FDD5F88430CD
:10110000029403F5805301220193C5F888202346F9
:10111000A346A246A146A0460393029B03EBC82226
:10112000019BD3181946384608EE103AFFF740FFE6
:10113000021E039BC0F291802022002104A8039389
:101140000CF0AEFC04A9384605F040FF021E039BDC
:10115000C0F2A980102207F59B71304603930CF072
:101160006DFC039B40B9202207F2813104A80CF0EA
:1011700065FC039B002860D0B8F1000F6AD0BBF17A
:10118000000F71D0019A4FEACA2303EB09331A44C6
:1011900008EE102A18EE101A3046FFF709FF041E59
:1011A00033DB494652464B48C5F87490C5F878A0E1
:1011B0000CF0E4FCD5E91D12C5E91F120132012A29
:1011C000AA6708D9013100230129C5E91D131A4670
:1011D00084BF6B67194640480CF0D0FC15E0D5F889
:1011E000841058460CF0CAFCD5F8842002F58052D1
:1011F000B2F5005FC5F88420FFF438AF37480CF033
:101200001FFD0123EB666FF00D0438460CF05EF90C
:1012100020460DB0BDEC028BBDE8F08F4FF480602E
:101220000CF04CF9C6F8A40300287FF40EAF2C484C
:101230000CF006FD6FF00B04E7E71946294842461B
:101240000CF09CFC039BC2469946B8F1000FA1D15B
:101250004FF0010B4FF001085EE7234801920CF0BC
:10126000EFFC019A1446D0E753B3594640F26B2283
:1012700006F59B700CF014FC59464FF4AF6206F56E
:101280006A700CF00DFC304605F064FF04A930468E
:1012900005F09CFE15480CF0D3FCB6E70446144854
:1012A0000CF0CEFCB1E7134801920CF0C9FC019A96
:1012B0001446AAE70A480CF0C3FC6FF00B04A7E73A
:1012C0004FF4805243460292D84625E7D848002082
:1012D000507801081479010844790108B4770108AD
:1012E000E4760108D4780108847801086879010857
:1012F000E0770108A87801082078010838B50621B0
:10130000044605F0F5FE2046FFF728FD0546204679
:1013100005F00CFF284638BD38B50621044605F017
:10132000E7FE2046FFF7A4FD0546204605F0FEFE39
:10133000284638BD10B5FFF775FE041E01DB2046B8
:1013400010BD02480CF07CFC204610BD94790108C9
:10135000D0F84100704700BF0020704738B51446F0
:101360001D460A46002305F02FFD25F00303211F2B
:101370002344C4F1006404342044425841F8042F4B
:101380009942FAD1002038BD03F2FF1323F4FF7312
:1013900023F00103FFF7A6BB02F6FF7222F47F627F
:1013A00022F00F02FFF71EBB2DE9F84310EB0208F5
:1013B00004460D4641EB030910E005F04BFD0746DE
:1013C00005F0CAFC064600220023781C86B905F009
:1013D000FBFC50EA010304460D4605D0444575EB7D
:1013E000090329462046E8D300263046BDE8F883A5
:1013F00022462B460721054805F024FF0221034819
:1014000005F0F0FE3046BDE8F88300BF64490020D7
:10141000002070470020704700F50040000370472F
:1014200070B5A4B0044616460D468022002104A8DB
:101430000CF036FB184A1949009641F68A7304A845
:101440000CF034FC21460095052303AA04A809F0FA
:10145000A7FF041E07DB039CC82C08BF00240ED185
:10146000204624B070BD0E4B0E4A1B680E49D8684A
:10147000009446230BF0EAFF204624B070BD084BD1
:10148000084A1B680949D86800944C230BF0DEFF1A
:101490006FF00D04E4E700BFBC790108DC790108B6
:1014A0001835002050730108E4790108107A01080A
:1014B00010B5144B93E8030094B00DF1300E089072
:1014C0008DF82410BEE80F00EC46ACE80F009EE853
:1014D0000F008CE80F0008AC94E80F0008F008FC3F
:1014E000041E02DB204614B010BD074B074A1B68E0
:1014F0000749D8680094AA230BF0A8FF204614B02F
:1015000010BD00BF447A0108183500206873010837
:101510004C7A01082DE9F04385B000244FF40060B7
:1015200003940BF0CBFF00286AD0054680200BF017
:10153000C5FF0646002858D0DFF8E490DFF8E880C1
:10154000354F08F023FC0346012B4FF40062284678
:101550004FF000013FD10CF0A3FA80220021304669
:101560000CF09EFA03AA2946304608F03FFC0446D8
:1015700032462846EE233946A4B90399FFF750FFB7
:101580000446002C284619DB08F0EAFC041ED8DAD1
:10159000D9F800202149D0680094E72342460BF097
:1015A00055FFCEE7D9F800004246C06800940BF022
:1015B0004DFF41F2883000F0E9F9C2E7184A1949B5
:1015C0001268DB23D068184A00940BF03FFF41F209
:1015D000883000F0DBF930460BF078FF28460BF03E
:1015E00075FF204605B0BDE8F0830D4B0E4A1B6821
:1015F0000E49D868C2230BF029FF6FF00B04EDE70A
:10160000074B094A1B680949D868BB230BF01EFF2A
:101610006FF00B04E5E700BF047B0108C87A0108FE
:1016200018350020987A010870730108847A01083F
:101630002DE9F04F85B04FF0000A4FF40060CDF86F
:101640000CA00BF03BFF002800F0A1800446802096
:101650000BF034FF0546002800F0A780DFF87C81FE
:10166000584E594F08F108094FF4006200212046F6
:101670000CF016FA8022002128460CF011FA03AA79
:101680002146284608F0B2FB031E09DA31684F4AAA
:10169000C86800934E4940F21D130BF0D7FEE3E7F4
:1016A00003992A462046FFF7BBFE031E1CDB20469B
:1016B00008F056FC012837D0D7F800B0BBF1010F75
:1016C00020D004234A4600210520FFF775F998F839
:1016D0000830FF2B4FF0010023D0FEF727FF42F226
:1016E000107000F053F9BFE73168384AC8680093BA
:1016F00038494FF492730BF0A9FE41F2883000F0A4
:1017000045F9B1E700214FF480420320FFF76AF961
:101710005B46424600210420FFF7E4F9C7F800A029
:10172000DDE7FEF7F5FEDAE74FF400620021204620
:10173000CDF80CA00CF0B4F98022002128460CF062
:10174000AFF903AA2146284608F050FB031E14DB1C
:1017500003992A462046FFF763FE031EACDA32687F
:101760001C49D0680093194A40F23B130BF06EFEFF
:1017700041F2883000F00AF976E732681449D068FF
:101780000093124A4FF49A730BF060FE6CE70D4B16
:101790000E4A1B681049D8684FF484730BF056FE4C
:1017A0006FF00B0005B0BDE8F08F064B074A1B68D1
:1017B0000949D86840F20F130BF048FE20460BF0A1
:1017C00085FEEDE718350020E43E00208473010813
:1017D000487B01087C7B0108847A0108C04800200E
:1017E00030B5002083B0FEF74DFE1A4D0120FEF704
:1017F00049FE0220FEF746FE2868174A1749C068CE
:1018000040F252230BF022FEFFF752FE041E16DBBD
:1018100008F0BCFA012804D003B0BDE83040FFF75F
:1018200007BFFFF777FE041EF6DA2B680A4AD8686E
:101830000B49009440F263230BF008FE07E02B688D
:10184000054AD868054940F259230BF0FFFD2046B0
:1018500003B030BD1835002098730108B87B01082B
:10186000D07B0108704700BF704700BF4FF0B04306
:101870004FF0FF32996B10B59A63D96BDA6300248D
:10188000996B9C63D96BDC63196C1A64196C1C64CA
:10189000596C5A64596C5C64996A9A62996A9C6240
:1018A000D96ADA62D96ADC62196B1A631A6B1C6333
:1018B000FFF7DAFF204610BD70B50F4E33780BB935
:1018C000012070BD054601F01FF932784FF47A739C
:1018D000B3FBF2F3B0FBF3F001F0C8FF04460028BD
:1018E000EED10F2DECD8024629464FF0FF3001F023
:1018F0004BFF7560204670BD843000200A4A136893
:1019000043F4807310B50320136001F02BFF002017
:10191000FFF7D2FF10B10124204610BD0446FEF7A8
:1019200035FD204610BD00BF00400058034A044B5F
:1019300011681B780B441360704700BFCC4800202F
:1019400084300020014B1868704700BFCC4800204D
:10195000014B5868704700BF8430002038B5074CF1
:101960002578854201D1002038BD03466068237088
:10197000FFF7A2FF0028F7D0257038BD8430002083
:10198000014B1878704700BF8430002038B50446FA
:10199000FFF7D8FF631C054602D0044B1B781C449C
:1019A000FFF7D0FF431BA342FAD338BD8430002099
:1019B0004FF0E022136923F002031361704700BF68
:1019C0004FF0E022136943F002031361704700BF38
:1019D0000048704700000901014B1868000C70476F
:1019E000002004E0024B1868C0F30B00704700BFF2
:1019F000002004E0014BD3F8900570470070FF1FF2
:101A0000014BD3F8940570470070FF1F014BD3F8CA
:101A1000980570470070FF1F024A536843F00103A6
:101A200053607047002004E0024A536823F001032A
:101A300053607047002004E0024A536843F00203F9
:101A400053607047002004E0024A536823F0020309
:101A500053607047002004E0024A536843F00403D7
:101A600053607047002004E0024A536823F00403E7
:101A700053607047002004E0044B5322CA2159628E
:101A80005A629A6942F001029A617047000001406F
:101A9000024A936943F0004393617047000001409C
:101AA000024B9869C043C00F704700BF000001405F
:101AB0000A4A136B23F0040303431363084B30B942
:101AC00093F8F030054A03F03F035363704793F8EF
:101AD0003030024A03F03F03536370470000014077
:101AE0000075FF1F034A136B23F0020318431063B2
:101AF000704700BF00000140014B5863704700BFB2
:101B00000000014038B50A4C236B43F00103236306
:101B1000FFF718FF054604E0FFF714FF401B0A28F3
:101B200004D8236B1B07F7D5002038BD032038BD30
:101B300000000140024A136B23F001031363704756
:101B400000000140024A536843F4807353607047B9
:101B500000000140024A536823F4807353607047C9
:101B600000000140024A536843F400735360704719
:101B700000000140024A536823F400735360704729
:101B800000000140034BD3F810211043C3F81001AB
:101B9000704700BF00000140034AD2F8103123EA29
:101BA0000000C2F81001704700000140044BD3F858
:101BB000103130EA03030CBF01200020704700BF42
:101BC000000001402DE9F04F0C6883B0002C6ED06E
:101BD0004FF0000C654E63464FF0010B8E460BFA3A
:101BE00003F717EA040A5CD0DEF8041001F00302E0
:101BF000551E012D5ED9032A40F0A28002FA0CF294
:101C0000D54307683D402A4311F4403F026048D065
:101C100023F0030202F1804202F5803203F0030553
:101C20004FEA850997680F2505FA09F8B0F1904F3A
:101C300027EA080712D04E4DA84200F08C804D4D87
:101C4000A84200F08C804C4DA8427ED04B4DA8425B
:101C50000CBF0425072505FA09F52F439760D6F830
:101C60008020CD036FEA0A0754BF3A404AEA0202D5
:101C7000C6F88020D6F884508A0354BF3D404AEA13
:101C80000505C6F884503568CA0254BF3D404AEA8B
:101C9000050535607268890254BF3A404AEA02027B
:101CA0007260013334FA03F20CF1020C97D103B0E5
:101CB000BDE8F08FD0F80890DEF80C504FF0030824
:101CC00008FA0CF829EA080905FA0CF545EA0905AD
:101CD00085606FEA0805D0F8048028EA0708C1F398
:101CE00000179F4047EA08074760C76807EA0508EA
:101CF000DEF8087007FA0CF747EA0807022AC760FF
:101D000002FA0CF27FF47DAF4FEAD30900EB8909A8
:101D100003F00708D9F820700097DEF810704FEA3A
:101D2000880807FA08F701970F2707FA08F8009FB5
:101D300027EA0808019F47EA0807C9F8207060E70A
:101D4000032505FA0CF5ED43CFE74FF0030808FA39
:101D500009F52F4382E70BFA09F52F437EE74FF091
:101D6000020808FA09F52F4378E700BF0008005879
:101D70000004004800080048000C0048001000481B
:101D800000297ED02DE9F04F00233E4EDFF804B14C
:101D90004FF00F094FF0030A4DE0584566D03A4F17
:101DA000B84267D0394FB84268D0394FB84214BFF3
:101DB0000727042707FA04F4A44517D1D6F8804072
:101DC00024EA0E04C6F88040D6F8844024EA0E04C3
:101DD000C6F88440346824EA0E043460746824EA47
:101DE0000E047460AC6824EA0804AC6005685C000A
:101DF0000AFA04F44FEAD30C254300EB8C0C05607F
:101E000003F00705DCF820E0AD0009FA05F52EEA3D
:101E10000505CCF82050C56825EA0405C56045686D
:101E200025EA02024260826822EA040484600133E7
:101E300031FA03F218D001229A4012EA010EF6D0CC
:101E400023F0030505F1804505F5803503F0030413
:101E5000D5F808C0A40009FA04F8B0F1904F08EAD8
:101E60000C0C9AD10024A7E7BDE8F08F012707FAF0
:101E700004F4A1E7022707FA04F49DE70AFA04F440
:101E80009AE770470008005800080048000C004816
:101E900000100048000400480369194214BF0120E3
:101EA000002070470AB1816170478162704700BFAE
:101EB000436901EA030221EA030141EA0241816127
:101EC000704700BF82B04FF480330193019B0B43F6
:101ED0000193019BC361C161019BC361C36901930C
:101EE000C06980F48030C0F3004002B0704700BF8A
:101EF000704700BF044AD168014200D1704708B55D
:101F0000D060FEF7B9F908BD00080058B028344B7E
:101F1000344A98BF000970B58CBFDD6A53F8205071
:101F20004FF0B04388B0D3F8083103F00F036C468C
:101F300052F82330B5FBF3F501F004F82A4B844640
:101F400003F110060FCB84E80F0096E80F00BCF5F4
:101F5000007F08AE06E90F0029D0244B9D4233D301
:101F600003F5B70303F67F539D4234D903F5741389
:101F700003F510639D4230D900261D4C236823F0E1
:101F8000070333432360FFF7DDFC054604E0FFF75A
:101F9000D9FC401B022807D8236803F007039E42A0
:101FA000F5D1002008B070BD032008B070BD114B02
:101FB000A3FB0535AD0C002354F8042B954204D93E
:101FC0000133042BF8D1D7E7002308AA02EB8303DF
:101FD00053F8106CD1E70123F7E70223F5E700BFC0
:101FE0003C7201087C720108A4730108C0CF6A002A
:101FF0000040005883DE1B43F8B54FF0B044FFF7B4
:10200000A1FC236823F004032360236843F0010349
:102010000546236023689A074ED5236823F0F00312
:1020200043F060032360636823F47F436360636865
:1020300023F0FE4343F080436360FFF783FC0023FB
:102040004FF0B04641F288370546A36004E0FFF741
:1020500079FC401BB84234D8B36813F00C0FF6D1AA
:1020600032681F4B13403360FFF76CFC4FF0B045F4
:1020700004462B689B0126D41A4BEB60FFF762FCE9
:102080004FF0B0440546236813F0006321D1154A90
:1020900022611549A3614FF0FF304FF440322062B6
:1020A000124BC4F808210868114A1A60FFF704FCB3
:1020B000003818BF0120F8BDFFF744FC401B022880
:1020C000A8D90320F8BDFFF73DFC001B0228D0D99A
:1020D000F7E7FFF737FC401B0228D4D9F1E700BF30
:1020E000FFF4EEFA00010422883000200C000020EA
:1020F00000093D0070B588B0032302260693002333
:102100000C4615460496059370B1012837D0022875
:102110001FD04FF0B040836823F0FE4343EA05022E
:102120002243826008B070BD4FF0B04303A9DA6C5F
:1021300042F00102DA64DB6C079003F001030093C4
:102140004FF090404FF48073009A0393FFF73AFDED
:10215000DFE74FF0B0434FF40041DA6C42F0010288
:10216000DA64DB6C039103F00103029303A90623F5
:102170004FF09040029A0793FFF724FDC9E74FF014
:10218000B0420848D16C41F00201D164D26C07938F
:1021900002F002020192402303A9019A0393FFF780
:1021A00011FDB6E7000400484FF0B042936813F009
:1021B0000C030AD11368224A03F0F003B02B28BFA6
:1021C000B0231B0952F823007047042B36D0082B8C
:1021D0002CD0D36803F00303022B25D0032B136804
:1021E00018D11848184913F4801F08BF01464FF052
:1021F000B043D868DA68DB68C0F30620C2F3021285
:102200005B0F01FB00F001320133B0FBF2F0B0FBD9
:10221000F3F0704703F0F003B02B28BFB023084A57
:102220001B0952F82310E2E70849E0E71268054B62
:10223000054812F4801F08BF1846704703487047CE
:102240003C72010800127A0000093D000024F400ED
:10225000002800F016812DE9F0418B4E336803F021
:1022600007038B420C460546C0F0CA802B689A07CC
:1022700064D4980673D45A0600F18680580700F19A
:1022800099801A0700F1A880DF0729D56B684FF005
:10229000B042022B126800F0ED80032B00F0E480C6
:1022A000002B40F0EB80910740F1E1804FF0B04609
:1022B00041F28838B26822F003021343B360FFF79B
:1022C00041FB074605E0FFF73DFBC01B404500F220
:1022D000AA80B3686A6803F00C03B3EB820FF2D1F3
:1022E000694D2B6803F00703A34213D92B6823F031
:1022F000070323432B60FFF725FB064605E0FFF7A6
:1023000021FB801B022800F28E802B6803F007035C
:10231000A342F4D1FFF748FF4FF0B0435B4A9B68FC
:102320005B49C3F3031351F82330B0FBF3F01060A3
:10233000FFF70EFBBDE8F041FFF7BEBA4FF0B04625
:10234000AA68B36823F0F0031343B360FFF7FAFA07
:102350000746B368DB0369D52B6898068BD54FF029
:10236000B0466A69D6F8083123F0F0031343C6F883
:102370000831FFF7E7FA0746D6F8083199035BD52D
:102380002B685A067FF57AAF4FF0B046AA69D6F8A7
:10239000083123F00F0343EA1213C6F80831FFF7A0
:1023A000D1FA0746D6F80831DB034BD52B6858071E
:1023B0007FF567AF4FF0B046EA68B36823F4E06397
:1023C0001343B360FFF7BEFA0746B36899033FD5DE
:1023D0002B681A077FF558AF4FF0B0462A69B368EB
:1023E00023F4605343EAC203B360FFF7ABFA074636
:1023F000B3685B0332D52B68DF073FF547AF6FE764
:10240000336823F007030B433360FFF79BFA07465B
:10241000336803F00703A3423FF428AFFFF792FAB3
:10242000C31B022BF4D90320BDE8F081FFF78AFA21
:10243000C01B02288DD9F6E7FFF784FAC01B0228DB
:102440009AD9F0E7FFF77EFAC01B0228AAD9EAE77B
:10245000FFF778FAC01B0228B7D9E4E7FFF772FA52
:10246000C01B0228C4D9DEE790013FF51FAF012051
:10247000BDE8F08196033FF519AFF8E75205F6D5B0
:1024800014E70120704700BF004000580C000020F6
:102490007C720108002800F0D982F8B503689A061A
:1024A00004465ED54FF0B0429368D26813F00C0337
:1024B0001DD00C2B17D0E3694FF0B045002B00F076
:1024C00097822B6843F001032B60FFF73BFA064627
:1024D0002B689F0700F1AC82FFF734FA801B0228BB
:1024E000F6D90320F8BD02F00302012AE3D14FF030
:1024F000B0431B689B0700F145814FF0B045606A0F
:102500002B6803F0F003B02B28BFB023984240F2B1
:102510004B82FFF7FBFC002840F038812B68626A91
:1025200023F0F00313432B606B68226A23F47F438C
:1025300043EA02236B60FFF737FE4FF0B043A74931
:102540009B68A74AC3F3031351F82330A549B0FB96
:10255000F3F308681360FFF7AFF9002840F0168125
:102560002368D90726D54FF0B0418A68C96802F0C0
:102570000C02082A00F08B810C2A00F0838163682A
:10258000B3F5803F00F0FB814FF0B0452A6822F49C
:1025900080322A60002B40F0F881FFF7D3F906461D
:1025A0002B689F0305D5FFF7CDF9801B6428F7D969
:1025B00097E723689E0736D54FF0B0418A68C9680F
:1025C00002F00C02042A1CD00C2A16D0E3684FF04B
:1025D000B045002B00F000822B6843F480732B6021
:1025E000FFF7B0F906462B68580500F11282FFF795
:1025F000A9F9801B0228F6D973E701F0030102292B
:10260000E4D14FF0B0421268550503D5E268002AC4
:1026100000F0BC804FF0B04120694A6822F0FE42D1
:1026200042EA00624A6013F0180F23D062694FF04B
:10263000B045002A00F0808113F0100FD5F89430D7
:1026400000F030819A0700F13F81D5F8943043F0D3
:102650000103C5F89430FFF775F90646D5F89430B4
:102660009B0700F13181FFF76DF9801B0228F5D936
:1026700037E723685D0730D55B4D2B68D80540F1FF
:102680008780A368012B00F0E380052B00F0F38125
:102690004FF0B045D5F8902022F00102C5F8902007
:1026A000D5F8902022F00402C5F89020002B40F0CD
:1026B000D780FFF747F9D5F890309B07064641F2DF
:1026C000883709D5FFF73EF9801BB8423FF609AFBE
:1026D000D5F890309B07F5D42368580628D4E36AD0
:1026E00023B34FF0B045022BAA68E96802F00C0250
:1026F0005ED00C2A4AD02B6823F080732B60EB68E5
:1027000023F00303EB60EB6823F0885323F480335A
:10271000EB60FFF717F9044605E0FFF713F9001B1C
:1027200002283FF6DEAE2B689B01F6D40020F8BDF0
:10273000A36A4FF0B04593B1D5F8983043F0010348
:10274000C5F89830FFF7FEF80646D5F89830990797
:10275000C5D4FFF7F7F8801B0228F6D9C1E6D5F8F3
:10276000983023F00103C5F89830FFF7EBF80646E0
:10277000D5F898309A07B2D5FFF7E4F8801B022805
:10278000F6D9AEE6E369002B7FF4B7AE0120F8BDC1
:1027900000F000FBFFF7D6F8064605E0FFF7D2F899
:1027A000801B02283FF69DAE2B68D905F6D568E759
:1027B000206B01F00303834200F06C810C2AE5D00A
:1027C0004FF0B0452B685B01E0D42B6823F0807399
:1027D0002B60FFF7B7F806460EE000BF7C720108D9
:1027E0000C0000208830002000040058FFF7AAF8F1
:1027F000801B02283FF675AE2B689F01F6D4D4E902
:102800000C32E9681343BA4A0A40E16B13430B43A5
:10281000D4E91001A26B03430B4343EA0223EB60AC
:102820002B6843F080732B60EB6843F08053EB60C0
:10283000FFF788F84FF0B046044605E0FFF782F84E
:10284000001B02283FF64DAE33689801F6D56DE7C0
:102850004FF0B042D2F8903043F00103C2F890300C
:10286000FFF770F84FF0B046054641F28837D6F8CA
:1028700090309A073FF530AFFFF764F8401BB8423D
:10288000F5D92EE601F0030103297FF478AE4FF06D
:10289000B042126892037FF58DAE6268002A7FF421
:1028A00089AE73E743F00103C5F89430FFF74AF8A7
:1028B0000646D5F89430990700F1CA80FFF742F830
:1028C000801B0228F5D90CE64FF0B045D5F89430BE
:1028D00043F00403C5F89430FFF734F8D5F894308A
:1028E0001F07064609D4FFF72DF8801B03283FF683
:1028F000F8ADD5F894301F07F5D5D5F89430A26916
:1029000023F4706343EA0223C5F89430D5F8943079
:1029100023F00103C5F89430FFF714F84FF0B046E8
:102920000546D6F8943098077FF5A3AEFFF70AF86E
:10293000401B0228F5D9D4E5D5F8943023F00403E0
:10294000C5F89430FEF7FEFF0646D5F894301B0715
:102950003CD4D5F8943023F00103C5F89430FEF749
:10296000F1FF4FF0B0460546D6F894309F077FF54B
:1029700080AEFEF7E7FF401B0228F5D9B1E54FF026
:10298000B042136843F480331360FEF7DBFF4FF06F
:10299000B046054633689B033FF50BAEFEF7D2FF0A
:1029A000401B6428F6D99CE52B6823F0F003034311
:1029B0002B606B68226A23F47F4343EA02236B6037
:1029C000FFF7A4FA00283FF4B6ADDFE6FEF7BAFF42
:1029D000801B0328B9D984E52B6823F480732B600E
:1029E000FEF7B0FF06462B6859051BD423681AE68C
:1029F0002B6823F001032B60FEF7A4FF06462B682B
:102A000098077FF5ADADFEF79DFF801B0228F6D934
:102A100067E56B68226923F0FE4343EA02636B605B
:102A2000236800E6FEF78EFF801B0228DBD958E5FD
:102A30002B68626A23F0F00313432B606B68226AF1
:102A400023F47F4343EA02236B6089E5012070474A
:102A5000D5F8943023F004034FF0B047C5F8943014
:102A6000D7F894301A077FF504AEFEF76BFF801B92
:102A70000328F5D935E54FF0B043D3F8902042F064
:102A80000402C3F89020D3F8902042F00102C3F86A
:102A90009020E5E6606B01F0700383427FF48EAE18
:102AA000A06BC1F3062383427FF488AEE06B01F490
:102AB000781383427FF482AE206C01F0606383421E
:102AC0007FF47CAE636C01F0604199427FF476AE96
:102AD0002B6899013FF52AAE2B6843F080732B6079
:102AE000EB6843F08053EB60FEF72CFF044607E0F1
:102AF0008C80C111FEF726FF001B02283FF6F1ACC7
:102B00002B689A01F6D511E608B5FFF74DFB4FF09B
:102B1000B043044A9B68C3F3031352F82330B0FB5D
:102B2000F3F008BD7C72010808B5FFF73DFB4FF0DC
:102B3000B043054AD3F80831C3F3031352F82330E6
:102B4000B0FBF3F008BD00BF7C72010808B5FFF7C9
:102B50002BFB4FF0B043054AD3F8083103F00F03C5
:102B600052F82330B0FBF3F008BD00BF7C720108BF
:102B700008B5FFF719FB4FF0B04309499A689B6805
:102B8000C2F30312C3F3022351F82210054AB0FB2B
:102B9000F1F052F8233003F01F03D84008BD00BF06
:102BA0007C7201081C73010808B5FFF7FDFA4FF0AD
:102BB000B04309499A689B68C2F30312C3F3C22366
:102BC00051F82210054AB0FBF1F052F8233003F01F
:102BD0001F03D84008BD00BF7C7201081C730108A8
:102BE0004FF0B0437F2202601A6802F480324260E4
:102BF0001A6802F00102C2615A68C2F30722026237
:102C00001A6802F0F002B02A28BFB02242621A68A5
:102C100002F48072C2605A68C2F306620261D3F89D
:102C20009020520734D5052383604FF0B043D3F88A
:102C30009420D3F8941002F0010201F004010A4339
:102C400018BF05224261D3F8982002F00102826287
:102C50001A6812F0807F14BF02220122C262DA6871
:102C600002F003020263DA6802F070024263DA687B
:102C7000C2F306228263DA6802F47812C263DA6869
:102C800002F060620264DB6803F0604343647047F3
:102C9000D3F8903013F0010318BF01238360C4E719
:102CA0004FF0B0436F2202609A6802F00C0242605B
:102CB0009A6802F0F00282609A6802F4E062C260F0
:102CC0009A6802F460520261D3F8082102F0F0021F
:102CD0004261D3F808311B0110B4DBB2044C8361AC
:102CE00023685DF8044B03F007030B60704700BFD7
:102CF000004000584FF0B042136843F400231360C3
:102D0000704700BF704700BF10B54FF0B044E36993
:102D1000DB0500D410BDFFF7F5FF4FF4807323628D
:102D200010BD00BF4FF0B043D3F89400D3F8942007
:102D300042F4000200F07E40C3F89420704700BFC8
:102D4000134B10B400224FF400414FF4007444F2CE
:102D500004201C605A6047F69F749960DA60D8615D
:102D600007201A625A629A62DA621A635A639A6395
:102D7000DA631A645A649A65DA65C3F88020C3F886
:102D800084109C615DF8044BC3F88800704700BF55
:102D900000040058024A136843F4807313607047BC
:102DA00000040058024A136823F4807313607047CC
:102DB000000400581B491C4B4A6810B4046822F0F8
:102DC0000E0222434A60D3F8802022F48032C3F8F6
:102DD0008020D3F8C02022F48032C3F8C0205A6883
:102DE00022F480325A601A6822F480321A604268F3
:102DF000D00305D5D3F8801041F48031C3F880109A
:102E0000D10704D508490B6843F480330B6093075E
:102E100004D5054A536843F48033536000205DF8BD
:102E2000044B70470004005800080058024A5368D9
:102E300043F001035360704700040058024A53688E
:102E400023F0010353607047000400580649CA6824
:102E500000F01F0C22EA0C0242EA5012CA608B6892
:102E60004CEA03038B60704700040058034A9368E0
:102E700000F01F0023EA000393607047000400582D
:102E80000E4B10B55B690C4660B99A0511D40C4A1B
:102E90001369012C23F00403136108D040BF20BF45
:102EA00020BF10BD9B05F2D400F096FBEFE730BFCA
:102EB00010BD00F099FB0028E9D010BD00040058B7
:102EC00000ED00E0B0F5804F084601D000F0B4BB43
:102ED00000F0CEBB0849094A0B6823F0070343F012
:102EE00003030B60136943F00403136130BF1369DC
:102EF00023F00403136170470004005800ED00E064
:102F0000024A136943F002031361704700ED00E0C9
:102F1000024A136923F002031361704700ED00E0D9
:102F2000024A136943F010031361704700ED00E09B
:102F3000024A136923F010031361704700ED00E0AB
:102F4000704700BF024B186800F4C060704700BFB4
:102F500000040058B0F5007F0ED01B4A136803F43C
:102F6000C063B3F5806F2AD0136823F4C06343F4C1
:102F7000806300201360704713490B6803F4C0633B
:102F8000B3F5007F1BD00B68104A114823F4C063CF
:102F900043F400730B6013684A69A0FB03039B0CA6
:102FA000322000FB03F3500505D523B14A695205D1
:102FB00003F1FF33F9D4044B5B695B0501D40020B6
:102FC00070470320704700BF000400580C00002029
:102FD00083DE1B43054AD36823F400731843D06093
:102FE000D36843F48073D360704700BF0004005877
:102FF000024AD36823F48073D360704700040058FA
:10300000024A536843F480635360704700040058D9
:10301000024A536823F480635360704700040058E9
:10302000024A936843F400439360704700040058D9
:10303000024A936823F400439360704700040058E9
:10304000024A936843F48073936070470004005809
:10305000024A936823F48073936070470004005819
:10306000024A936843F40063936070470004005879
:10307000024A936823F40063936070470004005889
:10308000024A936843F480539360704700040058E9
:10309000024A936823F480539360704700040058F9
:1030A000024A936843F40053936070470004005849
:1030B000024A936823F40053936070470004005859
:1030C000024A936843F480439360704700040058B9
:1030D000024A936823F480439360704700040058C9
:1030E000072811D8DFE800F0121C26303A1010042F
:1030F000204B9A6D01F00B010A439A65DA6D22EAC2
:1031000001010020D965704701207047194B1A6AE8
:103110000A431A625A6A22EA010100205962704782
:10312000144B9A6A0A439A62DA6A22EA0101002081
:10313000D96270470F4B1A6B0A431A635A6B22EA23
:1031400001010020596370470A4B9A6B0A439A6346
:10315000DA6B22EA01010020D9637047054B1A6C33
:1031600001F01F010A431A645A6C22EA010100208F
:10317000596470470004005807280ED8DFE800F0B3
:103180000F161D242B0D0D04174A936D01F00B0132
:1031900023EA010100209165704701207047124A1F
:1031A000136A23EA01010020116270470E4A936AF4
:1031B00023EA01010020916270470B4A136B23EA56
:1031C0000101002011637047074A936B23EA010154
:1031D000002091637047044A136C01F01F0123EA39
:1031E000010100201164704700040058072811D81D
:1031F000DFE800F0121C26303A101004204BDA6D84
:1032000001F00B010A43DA659A6D22EA0101002000
:103210009965704701207047194B5A6A0A435A62F0
:103220001A6A22EA0101002019627047144BDA6A17
:103230000A43DA629A6A22EA010100209962704721
:103240000F4B5A6B0A435A631A6B22EA01010020A2
:10325000196370470A4BDA6B0A43DA639A6B22EA06
:103260000101002099637047054B5A6C01F01F0162
:103270000A435A641A6C22EA01010020196470475B
:103280000004005807280ED8DFE800F00F161D24B0
:103290002B0D0D04174AD36D01F00B0123EA010138
:1032A0000020D165704701207047124A536A23EA13
:1032B00001010020516270470E4AD36A23EA0101DE
:1032C0000020D16270470B4A536B23EA01010020B2
:1032D00051637047074AD36B23EA01010020D16391
:1032E0007047044A536C01F01F0123EA01010020DA
:1032F0005164704700040058024A936843F48063A5
:103300009360704700040058024A936823F4806376
:103310009360704700040058034AD36923F4807314
:103320001843D061704700BF00040058024BD869B1
:1033300000F48070704700BF00040058024AD36850
:1033400023F40043D360704700040058024AD36856
:1033500043F40043D360704700040058024A936866
:1033600043F400739360704700040058024A936866
:1033700023F400739360704700040058C30603D51C
:10338000044B4CF2B0121A60024A136818431060E2
:10339000704700BF00040058024A136823EA000087
:1033A0001060704700040058024A536843F010034D
:1033B0005360704700040058024A536823F010031A
:1033C0005360704700040058024A536843F04003BA
:1033D0005360704700040058024A536823F04003CA
:1033E00053607047000400580368102B3AD0402BFC
:1033F00036D1394BD3F8942022F00202C3F894203E
:10340000D3F8902022F00202C3F890205A6A22F0EA
:1034100002025A621A6A22F002021A624268D10358
:1034200005D5D3F8901041F00201C3F89010900335
:1034300006D52949D1F8943043F00203C1F89430FD
:10344000D10704D524490B6A43F002030B629307AA
:1034500038D5214A536A43F0020300205362704773
:10346000012070471C4BD3F8842022F00042C3F89F
:103470008420D3F8802022F00042C3F880205A68CC
:1034800022F000425A601A6822F000421A60426834
:10349000D00305D5D3F8801041F00041C3F8801067
:1034A000910306D50C49D1F8843043F00043C1F8AC
:1034B0008430D30704D508490B6843F000430B6000
:1034C000900701D400207047034A536843F000433B
:1034D00000205360704700BF0008005810B4184B1C
:1034E000D3F8582583B0C2F3032201920346019812
:1034F00060B9144C1A68E1695B6821F00F0113434D
:103500000B43E36103B05DF8044B7047019A5968BF
:10351000063A521810D40F2AC6BF0F2201200020ED
:1035200008491C68CB6923F07F0323431A43CA610F
:1035300003B05DF8044B704700220120F0E700BFA4
:103540000070FF1F00040058044AD369800300F490
:10355000004023F400431843D06170470004005832
:10356000024B586900F00300704700BF0004005888
:103570000B4AD36800F01F0C23EA0C0343EA5010F7
:103580000129D06004D093684CEA0303936070472C
:10359000D2F884304CEA0303C2F88430704700BF8D
:1035A00000040058044B00F01F001A69012303FABD
:1035B00000F01040704700BF00040058054A00F0BA
:1035C0001F00012383409361136923FA00F000F088
:1035D0000100704700040058024A136843F4804316
:1035E00013607047000400581049114B0A6822F418
:1035F000804210B40A600F4C1B684A69A4FB034365
:1036000032209B0C940500FB03F305D523B14A69D6
:10361000920503F1FF33F9D4044B5DF8044B5B6969
:1036200013F4007F14BF03200020704700040058EB
:103630000C00002083DE1B430B490C4A0B6823F06F
:1036400007030B601369012843F00403136108D0DA
:1036500040BF20BF20BF054A136923F00403136154
:10366000704730BFF7E700BF0004005800ED00E0EE
:103670000C490D4A0B6823F0070343F001030B606C
:103680001369012843F00403136108D040BF20BF31
:1036900020BF054A136923F004031361704730BF4C
:1036A000F7E700BF0004005800ED00E00C490D4AA8
:1036B0000B6823F0070343F002030B601369012832
:1036C00043F00403136108D040BF20BF20BF054A68
:1036D000136923F004031361704730BFF7E700BF9D
:1036E0000004005800ED00E00849094A0B6823F087
:1036F000070343F004030B60136943F004031361F1
:1037000030BF136923F004031361704700040058AD
:1037100000ED00E0704700BF704700BF10B5104CCF
:10372000E368DA030DD40E4CE368002B12DB0C4C7B
:10373000E36A9B0700D410BDFFF7EEFF0223E362AC
:1037400010BDFFF7FDFB4FF48033E360044CE368EA
:10375000002BECDAFFF7DEFF4FF00043E360E6E713
:10376000000800580749CA6803024FF6FF0003F437
:10377000E0630240134343F0BF6343F40033CB6084
:10378000704700BF00ED00E01C4BDB68C3F3022371
:1037900000B5C3F1070EBEF1040F03F1040C28BFFE
:1037A0004FF0040EBCF1060F1BD9033B4FF0FF3C5A
:1037B0000CFA03FC22EA0C024FF0FF3C0CFA0EFC60
:1037C00021EA0C019940002841EA02010CDB00F1DA
:1037D0006040090100F56140C9B280F800135DF84E
:1037E00004FB00221346E7E7054B00F00F00090138
:1037F0000344C9B219765DF804FB00BF00ED00E098
:10380000FCEC00E0002808DB044A4109012300F039
:103810001F0003FA00F042F82100704700E100E0C9
:1038200000280DDB430907490122203300F01F0067
:1038300002FA00F041F82300BFF34F8FBFF36F8F00
:10384000704700BF00E100E0BFF34F8F0549064B12
:10385000CA6802F4E0621343CB60BFF34F8F00BF2E
:10386000FDE700BF00ED00E00400FA050138B0F10B
:10387000807F10D210B44FF0E023084C58614FF015
:10388000F00C84F823C00022072110469A615DF8ED
:10389000044B196170470120704700BF00ED00E044
:1038A000024BD868C0F30220704700BF00ED00E073
:1038B000002810B427DB00F1604000F5614090F86B
:1038C0000003000901F00701C1F1070CBCF1040F6E
:1038D00001F1040428BF4FF0040C062C11D9033960
:1038E0004FF0FF348C4020EA0404C8404FF0FF3111
:1038F00001FA0CF120EA010010601C605DF8044B35
:1039000070470024F2E7034C00F00F000444207ECF
:103910000009D7E7FCEC00E0002809DB4309054972
:1039200000F01F000122403302FA00F041F82300AA
:10393000704700BF00E100E000280BDB4309064AA6
:10394000403300F01F0052F8233023FA00F000F05B
:10395000010070470020704700E100E0002809DB0B
:103960004309054900F01F000122603302FA00F00C
:1039700041F82300704700BF00E100E04FF0E02273
:10398000042813690CBF43F0040323F004031361FC
:10399000704700BF704700BF08B5FFF7FBFF08BDC9
:1039A000BFF35F8F044B5A6A002122F480325A62BF
:1039B000C3F89410704700BF00ED00E0064B40F0E4
:1039C0000100C3F894005A6A42F480325A62BFF38D
:1039D0004F8FBFF36F8F704700ED00E017494378BA
:1039E000C1F89830027822B3436800B5C1F89C3022
:1039F000C37A90F80CC090F80FE01B0643EA0C73F2
:103A000090F80AC0134343EACC4390F80DC0827B80
:103A100043EA8C4343EA424390F809C0027A43EAFE
:103A20000E4343EA0C2343EA4203C1F8A0305DF899
:103A300004FBC1F89C20C1F8A020704700ED00E015
:103A40002DE9F047044640680F46FDF7E5FCA26803
:103A500000F1784012030023C117FDF7A5FC0028F0
:103A600043D1DFF8F49099F80020012A6ED0034684
:103A700001224FF47A7089F80020C9F80430FCF76D
:103A8000ABFE054628B1002389F800302846BDE882
:103A9000F0872368022B2CD02E4B1A6891050FD586
:103AA0001A6822F400721A601A6842F400621A60FE
:103AB0001A6822F400621A601A6842F400721A60EE
:103AC000244B1A685205DED51A6822F480621A6007
:103AD0001A6842F480521A601A6822F480521A60FE
:103AE0001A6842F480621A60CDE701252846BDE8D5
:103AF000F0874FF0FF333B60D4E9016333449E42CB
:103B00001CD2DFF850A0DFF8548005E06368A2689B
:103B100001361344B34211D9DAF8143023F4FF63A9
:103B200043EAC60343EA08034FF47A70CAF8143034
:103B3000FCF752FE0028E9D03E600546054A53696D
:103B400023F4FF6323F002035361A5E7022528460F
:103B5000BDE8F08700400058304800200200010016
:103B600070B5154C2378012B24D0012323700368F2
:103B7000054600264FF47A70C4E90163FCF72CFE79
:103B800008B1267070BD0D4A536943F0407353610C
:103B90002B68022BF6D1D5E90113636153692161CA
:103BA00023F4FF6343EAC10343F4803343F0020389
:103BB000536170BD022070BD3048002000400058A5
:103BC000F8B57B4C2378012B00F0E68001232370AD
:103BD00003680022D907626000F1B08003F006029A
:103BE000062A4FD09A0737D5724D734A296A06695B
:103BF0000A40296A42EA060C42F0FF0221EA020268
:103C000042EA0C022A621E0711D5C2696B490A42B8
:103C100040F0A98097070AD5D0E90A12654D01F155
:103C2000784102F17842C90AD20A6963AA6313F49F
:103C3000407F3ED1DB0607D5836C5E4A03F15F43CC
:103C400003F57D031B09D3634FF47A70FCF7C4FDC1
:103C500028B300232370F8BD5F07D4D5554A116AF5
:103C6000C9B2AA2902D0CC2918BFBB214269514E42
:103C700042F0FF05326A22EA050285692A430A43B7
:103C80003262C0E74B4D41692A6A066941F0FF0183
:103C900022EA0102816931430A432A62B3E7454AB5
:103CA000536943F4003353614FF47A70FCF794FD89
:103CB000CFE7404A9E05D2F88050D2F884202AD51A
:103CC00022F0795C826B416B02F16042A2F56032B6
:103CD00001F15F41920A01F57D01890A520642EA2B
:103CE0008142016B25F0FF0501F1784145EA113170
:103CF000C56B2CF4701CB5F5807F2E4D42EA0C028A
:103D00000BBF21F4807141F4807122F0814242F0B6
:103D10008142C5F88010D9050CD5016CB1F1004F76
:103D20003CD0456C05F1604541EA9501244D1540B4
:103D300041EA05021F49C1F884207BE742681D4E15
:103D4000D0E902513AB9F26A02F0FF222A4342EA6C
:103D50000142F26242E7326B02F0FF222A4342EA5A
:103D6000014232633AE7134ED507B16A0DD5056AB1
:103D7000476A05F17845ED0A21F4FF7121F0010150
:103D8000756207F1784541EAD5210A4D002AB8BF8E
:103D900041F00041A9623DE70220F8BD416C01F10C
:103DA00078450749114041EA950242F00042C1E7D7
:103DB000304800200040005800708FEF0100008064
:103DC0000000FC7F436840F21F32012B10B40260F8
:103DD00067D93D4B1A6AD2B2AA2A02D0CC2A18BFA0
:103DE000BB22394B02611A6A384941610A4082613B
:103DF0005C6B374A374902EAC42404F100648462E8
:103E00009C6B02EAC42404F10064C4625C6A02EAA6
:103E1000C42404F1006404629C6A02EAC42202F130
:103E2000006242629A6A02F0004242F00302C261FA
:103E3000DA6B01EA021202F1005202F540328264AA
:103E4000D3F88040D3F88420110AE4B201F4F84199
:103E5000D20B04F5004401F10051240301F5403177
:103E600002F4F842C0E90C4102F1005202F560325E
:103E700082631A6A5DF8044B02F48072C263D3F85D
:103E8000842002F000410164002AD3F88420124B00
:103E900003EA8203B4BF03F1006303F100534364F8
:103EA0007047094A3BB9D36ADBB28360D36AC3F374
:103EB0000743C3608DE7136BDBB28360136BC3F3FF
:103EC0000743C36085E700BF00400058007E8FEFC6
:103ED00000F80F00F0FF0300FCFF0F00024B186812
:103EE00000F48030704700BF00400058034A136858
:103EF00023F4803318431060704700BF004000581F
:103F0000024A136843F400431360704700400058AE
:103F1000024A136823F400431360704700400058BE
:103F2000024B1869C0F3C040704700BF0040005802
:103F3000054A536923F4FF6343EAC00040F480302C
:103F400040F00200506170470040005810B4026811
:103F500052E8003F23F4907342E800310029F7D182
:103F6000144C02F1080353E8003F234002F1080C0F
:103F70004CE800310029F4D1C36E012B08D0002396
:103F80002022C0F888205DF8044B0367C3667047A1
:103F900052E8003F23F0100342E800310029EED040
:103FA00052E8003F23F0100342E800310029EFD12E
:103FB000E5E700BFFEFFFFEFD0F88430212B00D0F3
:103FC0007047B0F856309BB28BB9026852E8003F98
:103FD00023F0800342E800310029F7D152E8003F86
:103FE00043F0400342E800310029F7D17047026DE9
:103FF000016832F8023BC3F308038B62B0F8563015
:104000000265013B9BB2A0F856307047D0F884306F
:10401000212B00D07047B0F86A30002BFAD010B4D2
:104020000168B0F85620013B92B29BB292B1CA69C6
:1040300012060AD5046D14F8012B8A62B0F85620D6
:104040000465013A92B2A0F85620002BE9D15DF840
:10405000044B704701F1080353E8003F23F40003C9
:1040600001F1080040E80032002AF3D151E8003F96
:1040700043F0400341E80032002AE8D051E8003F15
:1040800043F0400341E80032002AEFD1DFE700BFF0
:10409000D0F88430212B00D07047B0F86A30002B64
:1040A000FAD010B40168B0F85620013B92B29BB22E
:1040B000A2B1CA6912060CD5046D34F8022BC2F302
:1040C00008028A62B0F856200465013A92B2A0F85C
:1040D0005620002BE7D15DF8044B704701F108032F
:1040E00053E8003F23F4000301F1080040E80032E8
:1040F000002AF3D151E8003F43F0400341E8003289
:10410000002AE8D051E8003F43F0400341E8003284
:10411000002AEFD1DFE700BFD0F88430212B00D098
:104120007047B0F856309BB28BB9026852E8003F36
:1041300023F0800342E800310029F7D152E8003F24
:1041400043F0400342E800310029F7D17047026D87
:10415000036812F8011B9962B0F856300265013B02
:104160009BB2A0F856307047704700BF704700BF41
:10417000D0B138B524220368C0F884201A6800251D
:10418000044622F001021A601D605D609D60FCF72C
:104190003BF984F88050C4F88C502846C4F8845009
:1041A000C4F88850E56638BD01207047D0F88430E7
:1041B000202B31D171B36AB390F88030012B2BD012
:1041C00010B4436EA0F85620012480F880400024EB
:1041D000C0F88C40B3F1005F4FF0210483680165A3
:1041E000A0F85420C0F8844018D0B3F5805F2BD0DD
:1041F0001C4B02684367002180F8801052E8003FA2
:1042000043F0800342E800310029F7D100205DF837
:10421000044B70470120704702207047B3F5805F60
:1042200019D0114B02684367002180F8801002F119
:10423000080353E8003F43F4000302F1080040E89C
:1042400000310029F3D1E1E70169064B074A002953
:1042500008BF1346CDE70169034B054A002908BF93
:104260001346DFE7194100080D400008B93F000878
:1042700091400008F8B5D0F88460202E40D1002984
:104280003CD0002A3AD0044690F88000012837D06C
:10429000A06FA4F85620002701252123C4F88C70B4
:1042A0002165A4F8542084F88050C4F8843090B17B
:1042B000DFF864C0876313462268C0F82CC0DFF8BB
:1042C0005CC0C0F830C0DFF858C0C0F834C0283235
:1042D00002F0FAFAB0B9226840210023116284F892
:1042E000803002F1080353E8003F43F0800302F1FD
:1042F000080141E800300028F3D1F8BD0120F8BDE5
:104300000220F8BD102384F88070C4F88C30284651
:10431000C4F88460F8BD00BFA5470008ED47000859
:104320000548000810B490F88030D0F88410D0F818
:104330008840012B42D00122036880F880209A68CF
:10434000120601D521292CD09A68520606D40023E2
:1043500080F880305DF8044B18467047222CF6D167
:1043600053E8002F22F4807243E800210029F7D19E
:1043700003F1080252E8002F22F0010203F10804C1
:1043800044E800210029F3D103F1080252E8002F8C
:1043900022F0400203F1080444E800210029F3D18F
:1043A000D5E703F1080252E8002F22F0800203F162
:1043B000080C4CE800210029F3D1C5E702205DF884
:1043C000044B704790F88030012B44D0D0F88430F3
:1043D0000122212B80F8802008D0D0F88830222BB1
:1043E00015D0002380F8803018467047036803F129
:1043F000080252E8002F42F0800203F1080C4CE85A
:1044000000210029F3D1D0F88830222BE9D10368AC
:1044100008221A6253E8002F42F4807243E8002118
:104420000029F7D103F1080252E8002F42F00102FF
:1044300003F1080C4CE800210029F3D103F1080234
:1044400052E8002F42F0400203F1080C4CE8002132
:104450000029F3D1C5E70220704700BF38B50368D3
:10446000D0F88410D0F888509A681206044601D516
:10447000212907D0986810F0400002D0222D2FD0BB
:10448000002038BD03F1080252E8002F22F080021C
:1044900003F1080040E800210029F3D1A06F18B112
:1044A00002F06CFA90BB236853E8002F22F0C002A0
:1044B00043E800210029F7D103F1080252E8002F58
:1044C00022F4000203F1080040E800210029F3D1A2
:1044D0002022C4F88420986810F04000D1D0CDE7A5
:1044E00003F1080252E8002F22F0400203F1080015
:1044F00040E800210029F3D1E06F10B102F03EFA4C
:1045000070B92046FFF722FD002038BDA06F02F0F1
:10451000D5FB2028C7D11023C4F88C30032038BD28
:10452000E06F02F0CBFB2028EBD1F4E7036810B575
:10453000044653E8002F22F4F07243E800210029DA
:10454000F7D1414803F1080252E8002F024003F17D
:10455000080C4CE800210029F4D1E26E012A4FD06A
:10456000996808061A4620D49968490634D4616EC1
:1045700000230F20B1F1005FA4F85630A4F85E309C
:10458000106203D1936943F0100393619169002392
:10459000202041F008019161C4F88400C4F888002B
:1045A000E3661846C4F88C3010BD03F1080252E8E7
:1045B000002F22F0800203F1080040E800210029CA
:1045C000F3D1A06F20B1816302F0D8F958BB236802
:1045D000996849061A46CAD503F1080252E8002F25
:1045E00022F0400203F1080040E800210029F3D145
:1045F000E06FB0B1816302F0C1F9F0B92268B6E7AB
:1046000053E8002F22F0100243E800210029A7D030
:1046100053E8002F22F0100243E800210029EFD1D7
:104620009EE71A46A3E7A06F02F048FB2028CED1F0
:104630001023C4F88C30032010BDE06F02F03EFB65
:104640002028DBD1F4E700BFFEFF7FEF036810B541
:10465000044653E8002F22F0C00243E8002100295D
:10466000F7D103F1080252E8002F22F4000203F10F
:10467000080040E800210029F3D19A68120610D4FE
:10468000636E0022B3F1005FA4F8562004D12268C3
:10469000936943F0100393612023C4F88430002011
:1046A00010BD03F1080252E8002F22F0800203F14E
:1046B000080040E800210029F3D1A06F0028DFD0D6
:1046C000816302F05BF90028DAD0A06F02F0F6FAFD
:1046D0002028D5D11023C4F88C30032010BD00BF92
:1046E00038B50368044653E8002F22F4907243E87B
:1046F00000210029F7D1294803F1080252E8002FD0
:10470000024003F1080545E800210029F4D1E26EDA
:10471000012A26D0996849061A460ED400230F2193
:10472000A4F85E3011629169202541F00801916181
:104730001846C4F88850E36638BD03F1080252E811
:10474000002F22F0400203F1080040E80021002978
:10475000F3D1E06FB0B1816302F010F9A0B9226823
:10476000DCE753E8002F22F0100243E80021002983
:10477000D0D053E8002F22F0100243E80021002996
:10478000EFD1C7E71A46C9E7E06F02F097FA202891
:10479000E5D11023C4F88C30032038BDFEFFFFEFB5
:1047A000704700BF08B50368806A1B6813F02003D8
:1047B00017D10268A0F8563002F1080353E8003F11
:1047C00023F0800302F1080040E800310029F3D112
:1047D00052E8003F43F0400342E800310029F7D19E
:1047E00008BD07F0DBFA08BD704700BF08B5806A56
:1047F000FFF7FAFF08BD00BF704700BF704700BF5A
:10480000704700BF806A0368D0F8841010B5D0F8F4
:1048100088409A68120601D5212913D09B685B064F
:1048200001D5222C08D0D0F88C3043F01003C0F80A
:104830008C3007F0B7FA10BD0023A0F85E30FFF708
:1048400085FBF0E70022A0F8562053E8002F22F065
:10485000C00243E800210029F7D103F1080252E821
:10486000002F22F4000203F1080C4CE8002100297B
:10487000F3D12022C0F88420D0E700BF08B5806AB9
:104880000023A0F85E30A0F8563007F08BFA08BD80
:10489000704700BF036870B5054653E8002F22F447
:1048A000F07243E800210029F7D14D4803F10802D6
:1048B00052E8002F024003F1080444E800210029D7
:1048C000F4D1EA6E012A69D0A86F00287CD09A68DA
:1048D00012F0800218BF434A82631C46E96F29B177
:1048E0009A6812F0400218BF3F4A8A639A6812061B
:1048F0003BD49A68560615D5012403F1080252E804
:10490000002F22F0400203F1080040E80026002EAC
:10491000F3D100295AD0084602F06AF818B3EB6FB9
:104920002C689E636A6E00230F21B2F1005FA5F828
:1049300056302B67A5F85E306B67C5F88C30216266
:1049400003D1A36943F01003A361A369202243F0BC
:1049500008030021A3612846C5F88420C5F88820F3
:10496000E966FFF795FF002070BD03F1080252E8E9
:10497000002F22F0800203F1080646E80024002CF4
:10498000F3D1E0B102F034F82B6818B3A96F9A683C
:104990008C6351061C46C5D5E96FADE753E8002F7F
:1049A00022F0100243E8002100298DD053E8002FA7
:1049B00022F0100243E800210029EFD184E79A6831
:1049C00052061C46AED597E71C4687E7012CCAD194
:1049D0001C46A7E79A685006C5D5E96F8DE700BF6A
:1049E000FEFF7FEF314A0008ED490008806AD0E9F8
:1049F0001E320021916313B19B6B03B170470268B3
:104A000000230F2110B5A0F85630A0F85E30C0F892
:104A10008C3011629169202441F008019161C0F845
:104A20008440C0F88840C366FFF732FF10BD00BF66
:104A3000806AD0E91E230021916313B19B6B03B1FF
:104A40007047416E026810B500230F24B1F1005F7A
:104A5000A0F85630A0F85E30C0F88C30146209D04F
:104A600020230022C0F88430C0F88830C266FFF7E7
:104A70000FFF10BD936943F010039361F0E700BF8F
:104A8000704700BF036810B5044653E8002F22F0BA
:104A9000C00243E800210029F7D103F1080252E8DF
:104AA000002F22F4000203F1080040E80021002951
:104AB000F3D19A6812F080020ED1616EA4F85620EC
:104AC000B1F1005F626720D02023C4F88430204613
:104AD000FFF7D6FF002010BD03F1080252E8002FB7
:104AE00022F0800203F1080040E800210029F3D100
:104AF000A06F78B10D4B836301F07AFF0028E9D0F5
:104B0000A06F836B9847002010BD9A6942F0100295
:104B10009A61D9E72023A4F856006067C4F884306E
:104B20002046FFF7ADFF002010BD00BF314B00084D
:104B3000806A08B5436E0022B3F1005FA0F85620EA
:104B400004D10268936943F0100393612023C0F8F5
:104B50008430FFF795FF08BD704700BF38B5036884
:104B6000044653E8002F22F4907243E80021002904
:104B7000F7D12E4803F1080252E8002F024003F15A
:104B8000080545E800210029F4D1E26E012A1CD075
:104B90009A6812F040023BD003F1080252E8002F5D
:104BA00022F0400203F1080040E800210029F3D17F
:104BB000E26FDAB11E4B9363104601F019FF10B19A
:104BC000E06F836B9847002038BD53E8002F22F038
:104BD000100243E800210029DAD053E8002F22F028
:104BE000100243E800210029EFD1D1E70F21A4F8FA
:104BF0005E20A26519629969202541F0080199613A
:104C00002046C4F88850E266FFF7A6FF002038BDB2
:104C100020210F20A4F85E20A26518622046C4F867
:104C20008810E266FFF798FF002038BDFEFFFFEF17
:104C3000354C0008806A036800210F2210B5A0F8E7
:104C40005E101A629A69202442F008029A61C0F844
:104C50008840C166FFF780FF10BD00BF704700BFEE
:104C60000368DA6940F60F0C12EA0C0F2DE9F041E7
:104C70001D689968044600F0B9809E4E9E4805EA7A
:104C8000060C08405CEA000643D1E06E01281ED005
:104C9000D70202D54E0200F1DF80100606D501F4DE
:104CA000000105F08000014340F0CE80570602D598
:104CB0006E0600F1AC80100202D5690000F1D880C8
:104CC000D30102D5002DC0F24E81BDE8F081D60699
:104CD000DED5E806DCD510221A629A68510640F14A
:104CE000D380E06F01684A6892B2002AEDD0B4F830
:104CF0005C509542E9D9A4F85E200A68920640F11A
:104D00000181B4F85E10691A204689B2FFF7A6FF48
:104D1000DBE7D6071F4609D5EE0507D501261E623B
:104D2000D4F88C6046F00106C4F88C6096077ED5F6
:104D3000CE0709D502261E62D4F88C6046F0040620
:104D4000C4F88C60560776D416070BD505F02006FC
:104D5000304307D008201862D4F88C0040F00800D7
:104D6000C4F88C0016050AD5680108D54FF4006018
:104D70001862D4F88C3043F02003C4F88C30D4F897
:104D80008C30002BA1D0930606D505F0200501F04C
:104D9000805155EA010370D1D4F88C50BB6805F0FE
:104DA000280503F040031D43204600F0E180FFF793
:104DB000CDF823689A68570656D503F1080252E8E1
:104DC000002F22F0400203F1080040E800210029F2
:104DD000F3D1E06F002847D0484B836301F008FE11
:104DE00000283FF472AFE06F836B0DE097067FF50C
:104DF0004CAF05F0200601F080573E433FF445AF2D
:104E0000036F002B3FF461AFBDE8F041184753E852
:104E1000002F22F0400243E800210029F7D120238F
:104E2000C4F884306167204606F0B8FF4DE75607A6
:104E30008AD5CE0788D504261E62D4F88C6046F049
:104E40000206C4F88C607FE7636F002B3FF43DAF30
:104E50002046BDE8F04118474FF4801220461A6200
:104E6000BDE8F04101F0CAB9204606F09BFF2CE7EF
:104E70002046BDE8F04101F0C5B9236F002B8BD06F
:104E800020469847276887E7B4F85E10B4F85E209C
:104E900092B289B2002A3FF418AFB4F85C20511ADC
:104EA00089B200293FF411AF53E8002F22F4907229
:104EB00043E800200028F7D1114D03F1080252E821
:104EC000002F2A4003F1080646E800200028F4D10C
:104ED0002022C4F888202067E06653E8002F22F0E3
:104EE000100243E800200028F7D12046FFF7B6FE65
:104EF000EBE600BF20010004010000107D4800081F
:104F0000FEFFFFEF53E8002F22F4807243E80021F8
:104F10000029F7D103F1080252E8002F22F0010224
:104F200003F1080545E800210029F3D103F1080247
:104F300052E8002F22F0400203F1080545E8002165
:104F40000029F3D12022C4F88820E16653E8002F1D
:104F500022F0100243E800210029F7D101F00EFDF4
:104F6000B4F85C50CDE62046BDE8F04101F048B908
:104F700006F018FFC4F88C50A7E600BF08B5D0F8BB
:104F80008830222B05D00268936943F008039361AF
:104F900008BD0368B0F860105B6A826D0B40137047
:104FA000B0F85E30826D013B9BB2A0F85E30B0F885
:104FB0005E3001329BB28265002BE9D1036853E871
:104FC000002F22F4907243E800210029F7D103F169
:104FD000080252E8002F22F0010203F1080C4CE80D
:104FE00000210029F3D12022C0F88820C26E016779
:104FF000012A12D1C16653E8002F22F0100243E8C3
:1050000000210029F7D1DA69B0F85C10D20644BF5C
:1050100010221A62FFF722FE08BD06F0C1FE08BD8D
:1050200008B5D0F88830222B05D00268936943F088
:105030000803936108BD0368B0F860C05A6A816DC7
:1050400002EA0C0221F8022BB0F85E208165013AD9
:1050500092B2A0F85E20B0F85E2092B2002AE9D1A8
:1050600053E8002F22F4907243E800210029F7D181
:1050700003F1080252E8002F22F0010203F1080CAC
:105080004CE800210029F3D12022C0F88820C26E0C
:105090000167012A12D1C16653E8002F22F01002E5
:1050A00043E800210029F7D1DA69B0F85C10D20694
:1050B00044BF10221A62FFF7D1FD08BD06F070FE52
:1050C00008BD00BF2DE9F04702680446D0691768A3
:1050D0009668D4F88810222906D01346926942F0C7
:1050E00008029A61BDE8F087B4F86830002B00F040
:1050F000B280810678D594F860A0DFF8649106F05C
:1051000001064FF00008536AA26D0AEA0303137008
:10511000B4F85E102368A26D013989B2A4F85E105C
:10512000DD690132A2656A071BD0E80709D5F905D8
:1051300007D501221A62D4F88C2042F00102C4F88B
:105140008C20AA0715D54EB102221A62D4F88C2001
:10515000680742F00402C4F88C200ED4D4F88C30D6
:10516000BBB9B4F85E309BB2EBB1AB063CD522685C
:10517000C9E76907F2D5002EF0D004221A62D4F8EC
:105180008C3043F00203C4F88C30D4F88C30002B00
:10519000E7D0204606F006FEC4F88C80B4F85E30F6
:1051A0009BB2002BE1D1236853E8002F22F48072D8
:1051B00043E800210029F7D103F1080252E8002F4B
:1051C00002EA090203F1080040E800210029F3D1B6
:1051D0002022C4F88820E26E2167012A27D02046C9
:1051E00006F0DEFDAB06C2D4B4F85E309BB2002BF5
:1051F0003FF478AFB4F868209A427FF673AF236823
:1052000003F1080252E8002F22F0805203F1080057
:1052100040E800210029F3D1104A226753E8002F0B
:1052200042F0200243E800210029F7D15AE7E16665
:1052300053E8002F22F0100243E800210029F7D1A3
:10524000DA69B4F85C10D20644BF10221A62204614
:10525000FFF704FD89E7B4F85E3043E77D4F0008AF
:10526000FEFFFFEF03682DE9F047D9691E689D68CE
:10527000D0F88820222A05D09A6942F008029A6163
:10528000BDE8F087B0F868208246002A00F0B880B8
:1052900089067BD5B0F86090DFF8708105F00105D4
:1052A00000275A6ADAF8581009EA020221F8022B9C
:1052B000BAF85E20CAF85810013A92B2AAF85E20F5
:1052C000DC6962071BD0E00709D5F10507D501228B
:1052D0001A62DAF88C2042F00102CAF88C20A20788
:1052E00016D54DB102221A62DAF88C20600742F01E
:1052F0000402CAF88C200FD4DAF88C30C3B9BAF89B
:105300005E309BB2F3B1A30640D5DAF80030C8E7AF
:105310006107F1D5002DEFD004221A62DAF88C3043
:1053200043F00203CAF88C30DAF88C30002BE6D058
:10533000504606F037FDCAF88C70BAF85E309BB262
:10534000002BE0D1DAF8003053E8002F22F480720D
:1053500043E800210029F7D103F1080252E8002FA9
:1053600002EA080203F1080040E800210029F3D115
:105370002022CAF88820DAF86C20CAF87010012AB6
:1053800029D0504606F00CFDA306BED4BAF85E3014
:105390009BB2002B3FF474AFBAF868209A427FF6B4
:1053A0006FAFDAF8003003F1080252E8002F22F064
:1053B000805203F1080040E800210029F3D1124A8D
:1053C000CAF8702053E8002F42F0200243E8002181
:1053D0000029F7D154E7CAF86C1053E8002F22F0E7
:1053E000100243E800210029F7D1DA69BAF85C100D
:1053F000D20644BF10221A625046FFF72FFC82E704
:10540000B0F85E303CE700BF21500008FEFFFFEF20
:10541000806A08B5C36E012B02D0FFF7EFF908BD13
:10542000B0F85C104908FFF719FC08BD08B503681F
:10543000806A1A6812F0200228D10368A0F85E2062
:1054400053E8002F22F4807243E800210029F7D1AD
:1054500003F1080252E8002F22F0010203F1080CC8
:105460004CE800210029F3D103F1080252E8002F93
:1054700022F0400203F1080C4CE800210029F3D18E
:105480002022C0F88820C26E012A05D0C36E012BED
:1054900013D006F085FC08BD53E8002F22F010025F
:1054A00043E800210029F1D053E8002F22F0100238
:1054B00043E800210029EFD1E8E7B0F85C10FFF7DE
:1054C000CDFB08BD044B02689A4204D0536903F037
:1054D0007F43194351617047008000400F490268C3
:1054E0008A42034618D0D0F88410202912D190F8AF
:1054F000800001280ED02420C3F8840050684FF0AB
:10550000000C40F4000050606046C3F8841083F83B
:1055100080C0704702207047012070470080004023
:105520000F4902688A42034618D0D0F88410202917
:1055300012D190F8800001280ED02420C3F88400F6
:1055400050684FF0000C20F4000050606046C3F833
:10555000841083F880C07047022070470120704794
:10556000008000400268936943F004039361704730
:1055700090F88030012B1DD001212423026880F88F
:105580008010C0F8843052E8003F23F00C0342E85A
:1055900000310029F7D152E8003F43F0080342E808
:1055A00000310029F7D12023C0F8843080F8801022
:1055B000084670470220704790F88030012B1DD0BC
:1055C00001212423026880F88010C0F8843052E85A
:1055D000003F23F00C0342E800310029F7D152E8E4
:1055E000003F43F0040342E800310029F7D12023B3
:1055F000C0F8843080F88010084670470220704759
:1056000090F88030012B12D00168242310B4C0F828
:1056100084308A69002342F0020220248A6180F8E3
:105620008030C0F8844018465DF8044B7047022073
:10563000704700BFD0F88420D0F88800104370472E
:10564000D0F88C00704700BF38B504460368826804
:10565000006961691D6802430A43E06982490243A7
:1056600029400A431A605A68E16822F440520A430A
:105670007E495A608B42A269996841D0256A21F01F
:105680006E4121F430612A430A439A60DA6A616A02
:1056900022F00F020A43DA62754A934207D00120D2
:1056A00000234FF00112C4E91C33A26638BD4FF04D
:1056B000B043D3F8883003F00303013B022B6BD9CE
:1056C000B0F5004F00F0B380FDF76EFA002800F04F
:1056D000A580616A674A656802EB41024FF6EF7187
:1056E0009388B0FBF3F303EB5503B3FBF5F39BB2E5
:1056F000A3F110028A42D2D822680020D360CFE7FB
:1057000021F06E4121F430610A439A60DA6A616ADD
:1057100022F00F024FF0B0400A43DA62D0F888302E
:1057200003F44063B3F5006F7AD00AD8002B4FD052
:10573000B3F5806FB3D1FCF737FD00286ED0616AF6
:1057400004E0B3F5406FAAD14FF40040494B6568BF
:1057500003EB41018A88B0FBF2F305EB4501994266
:105760009DD8B3EB053F9AD80023194606F07CFB81
:105770000902030241EA1061680818182A464FF02E
:10578000000341F1000106F06FFB3B4AA0F54071B8
:105790009142034683D8AFE7364AB0F5004FD35C59
:1057A00048D0013B072B3FF67AAF01A050F823F019
:1057B000C9560008255800089F560008D75700080A
:1057C0009F5600089F5600089F5600082958000859
:1057D000FDF7CEF9B1E7FCF7E7FC77E7FCF7E4FC6F
:1057E000E0B1616A234A656802EB41026B08928866
:1057F000B0FBF2F003EB4000B0FBF5F083B2A3F195
:1058000010014FF6EF7291423FF649AF20F00F00C2
:10581000226880B2C3F342031843D06000203FE700
:10582000164893E7154856E74FF4004053E7FDF755
:10583000BBF9D5E7013B072B3FF631AF01A555F882
:1058400023F000BF2F580008655800089F56000835
:10585000DD5700089F5600089F5600089F56000815
:10586000E75700080548BEE7F369FFCF0080004016
:1058700000380140C4730108FFFC0F000024F4004D
:10588000836ADA0710B406D50168C46A4A6822F44C
:10589000003222434A609C0706D50168046B4A68BF
:1058A00022F4803222434A60590706D50168446BCE
:1058B0004A6822F4802222434A601A0706D501680A
:1058C000846B4A6822F4004222434A60DC0606D513
:1058D0000168C46B8A6822F4805222438A60990668
:1058E00006D50168046C8A6822F4005222438A605B
:1058F0005A0609D50168446C4A6822F48012224392
:10590000B4F5801F4A600BD01B0606D50268C16C37
:10591000536823F400230B4353605DF8044B704736
:105920004A68846C22F4C00222434A60ECE700BF5C
:105930002DE9F047DDF82080056881460F461646C0
:105940009A4602E0B8F1FF3F0CD1EC6937EA040354
:105950000CBF4FF0010C4FF0000CB445F2D000200A
:10596000BDE8F087FBF7EEFFA0EB0A0040452DD81D
:10597000B8F1000F2AD0D9F800502B6859072A46F1
:10598000E3D5EB691B05E0D54FF400632B6252E8C9
:10599000003F23F4D07342E800310029F7D102F12F
:1059A000080353E8003F23F0010302F1080040E838
:1059B00000310029F3D12023C9F8843089F8801000
:1059C000C9F888300320C9F88C30C9E7D9F800201D
:1059D00052E8003F23F4D07342E800310029F7D1A8
:1059E00002F1080353E8003F23F0010302F108002D
:1059F00040E800310029F3D12023C9F8843089F828
:105A00008010C9F888300320AAE700BF2DE9F043D1
:105A10000446D0F88400202883B04AD10D460029DE
:105A200043D01746002A40D01E4694F88030012B00
:105A30003FD0012384F880304FF000092123C4F8BF
:105A40008C90C4F88430FBF77DFFA368A4F85470F1
:105A5000B3F5805FA4F8567080462ED0B4F8563067
:105A600000229BB284F8802073B930E0236815F8D7
:105A7000012B9A62B4F85620013A92B2A4F856204B
:105A8000B4F8562092B212B3009643460022802109
:105A90002046FFF74DFFB0B9002DE7D139F8023BA2
:105AA0002268C3F308039362E4E7012003B0BDE872
:105AB000F083022003B0BDE8F0832369002BCDD131
:105AC000A9461D46CAE7032003B0BDE8F08300964F
:105AD0004346002240212046FFF72AFF0028F2D14A
